:020000040800F2
:10000000B8080020450100084516000847160008FA
:100010004B1600084F160008531600080000000099
:10002000000000000000000000000000571600085B
:1000300059160008000000005B1600085D16000855
:100040005F0100085F0100085F0100085F01000810
:100050005F0100085F0100085F0100085F01000800
:100060005F0100085F0100085F0100085F010008F0
:100070005F0100085F0100085F0100085F010008E0
:100080005F0100085F0100085F0100085F010008D0
:100090005F0100085F0100085F0100085F010008C0
:1000A0005F0100085F0100085F0100085F010008B0
:1000B0005F0100085F0100085F0100085F010008A0
:1000C0005F0100085F0100085F0100085F01000890
:1000D0005F0100085F0100085F0100085F01000880
:1000E000651600085F0100085F0100085F01000855
:1000F0005F0100085F0100085F0100085F01000860
:100100005F0100085F0100085F0100085F0100084F
:100110005F0100085F0100085F0100085F0100083F
:100120005F0100085F0100085F0100085F0100082F
:10013000DFF80CD001F042FE004800470B15000824
:10014000B80800200648804706480047FEE7FEE75B
:10015000FEE7FEE7FEE7FEE7FEE7FEE7FEE7FEE777
:1001600047020008310100080CB500200190009002
:100170006C48006840F480306A49086000BF6948F4
:10018000006800F4003000900198401C0190009835
:1001900018B90198B0F5A06FF1D16248006800F479
:1001A000003010B10120009001E000200090009884
:1001B000012843D15C48006840F010005A490860AB
:1001C0000846006820F0030008600846006840F018
:1001D0000200086053484068524948600846406839
:1001E00048600846406840F48060486008464068BF
:1001F00020F47C1048600846406840F4E8104860ED
:100200000846006840F08070086000BF45480068FC
:1002100000F000700028F9D04248406820F0030048
:10022000404948600846406840F00200486000BF0E
:100230003C48406800F00C000828F9D10CBD10B50E
:10024000FFF792FF10BD10B53648006840F001007E
:1002500034490860084640683449084031494860DC
:1002600008460068324908402E4908600846006880
:1002700020F4802008600846406820F4FE004860B2
:100280004FF41F008860FFF7DAFF4FF00060294944
:10029000086010BD10B5002100200022214B5B68D2
:1002A00003F00C0121B1042906D0082928D107E068
:1002B000214B224C236027E01F4B204C236023E07E
:1002C000184B5B6803F47010164B5B6803F48032C4
:1002D000022303EB904022B9194B4343174C236090
:1002E0000DE0104B5B6803F4003323B1144B434320
:1002F000124C236003E0104B4343104C236003E097
:100300000D4B0E4C236000BF00BF064B5B68C3F370
:1003100003130C4CE15C094B1B68CB40074C23607A
:1003200010BD000000100240002002400000FFF855
:10033000FFFFF6FE08ED00E000127A00000000204A
:1003400000093D000400002031490143314A116099
:10035000704770B5002100230F22C47804B32D4CE0
:10036000246804F4E064C4F5E064210AC1F10403E4
:10037000CA40447804FA03F1847814402143090107
:10038000254C0678A155047804F01F050124AC40E3
:1003900005786D11AD0005F1E025C5F8004109E0D3
:1003A000047804F01F050124AC401C4D067876113A
:1003B00045F8264070BD1A4A0A400243154B1B1FE0
:1003C0001A60704739B1134A121D12680243114B6B
:1003D0001B1D1A6006E00F4A121D126882430D4B66
:1003E0001B1D1A607047042808D14FF0E0210969ED
:1003F00041F004014FF0E022116107E04FF0E021ED
:10040000096921F004014FF0E022116170470000FA
:100410000000FA050CED00E000E400E080E100E0FF
:1004200080FFFF1F002044490860091D0860091D66
:100430000860091D086041483F4914310860704751
:1004400000213D498279002A3AD00A4612680368A1
:100450009A430B461A600A1D126803689A430B1DE3
:100460001A60027911440A6803681A430A60324A22
:100470000832126803689A432F4B08331A601A1D1A
:10048000126803689A432C4B0C331A604279102A85
:100490000ED11A1F126803681A43274B08331A60DB
:1004A0001A1D126803681A43234B0C331A600DE0BF
:1004B0002149427911440A6803681A430A6005E039
:1004C000027911440A6803689A430A607047002160
:1004D000016001710C214171002181717047164941
:1004E000103109680143144A103211607047014607
:1004F0000020114A143212680A400AB1012000E0BB
:10050000002070470C4914310860704701460020F4
:100510000022094B1B6803EA0102074B14331B68D6
:100520000B4013B10AB1012000E0002070470249DE
:10053000143108607047000000040140FFFF0F0005
:1005400010B50446CC48844208D10121042000F0B3
:100550002FFD0021042000F02BFD46E0C748844217
:1005600008D10121082000F023FD0021082000F01F
:100570001FFD3AE0C248844208D10121102000F05A
:1005800017FD0021102000F013FD2EE0BD4884422D
:1005900008D10121202000F00BFD0021202000F0D7
:1005A00007FD22E0B848844208D10121402000F034
:1005B000FFFC0021402000F0FBFC16E0B348844221
:1005C00008D10121802000F0F3FC0021802000F000
:1005D000EFFC0AE0AE48844207D10121801500F00B
:1005E000E7FC0021A01500F0E3FC10BD10B50121CF
:1005F000084600F0DDFC0021012000F0D9FC10BD10
:100600002DE9F041024600250026002000230024A9
:10061000002791F803C00CF00F0591F803C00CF00F
:10062000100CBCF1000F03D091F802C04CEA050594
:1006300091F800C0BCF1000F31D0146800202BE00D
:100640004FF0010C0CFA00F3B1F800C00CEA0306FD
:100650009E4220D183004FF00F0C0CFA03F7BC43ED
:1006600005FA03FC4CEA040491F803C0BCF1280F1E
:1006700006D14FF0010C0CFA00FCC2F814C00AE0DD
:1006800091F803C0BCF1480F05D14FF0010C0CFAF2
:1006900000FCC2F810C0401C0828D1D31460B1F887
:1006A00000C0BCF1FF0F34DD546800202EE000F1E3
:1006B000080C4FF0010808FA0CF3B1F800C00CEA7E
:1006C00003069E4221D183004FF00F0C0CFA03F772
:1006D000BC4305FA03FC4CEA040491F803C0BCF1E6
:1006E000280F05D100F1080C08FA0CF8C2F81480A4
:1006F00091F803C0BCF1480F07D100F1080C4FF08E
:10070000010808FA0CF8C2F81080401C0828CED363
:100710005460BDE8F0814FF6FF71018002218170C5
:100720000421C17070470246002093680B400BB152
:10073000012000E0002070470146886880B27047C1
:1007400002460020D3680B400BB1012000E00020DE
:1007500070470146C86880B27047016170474161C7
:1007600070470AB1016100E041617047C1607047A4
:100770004FF480320A4382618161826182698269B9
:10078000704702460020434B18684FF680731840AC
:1007900040EA021008433F4B186070473E49C86169
:1007A0007047F0B50A46002300240021002500F020
:1007B0000046B6F1004F02D1364EF16901E0354EE8
:1007C0007168C0F3034583B200F44016B6F5401FCC
:1007D00008D121F070612F4E766826F070662D4F9B
:1007E0007E6012E000F48016B6F5801F06D1032665
:1007F00006FA05F4A14341F0706106E0460D3601AA
:1008000003FA06F6B14341F0706122B1460D36019C
:1008100003FA06F6314300F00046B6F1004F02D16C
:100820001C4EF16101E01B4E7160F0BD30B500223D
:100830008B071C0F0F2303FA04F2164B08338C109E
:1008400053F824309343134C08348D1044F825306A
:1008500023468C1053F824308C07240F00FA04F43C
:1008600023430C4C08348D1044F8253030BD0A4920
:10087000DC3108607047000000080140000C0140B6
:10088000001001400014014000180140001C01400C
:1008900000200140000001400000204210B5044645
:1008A000F748844209D10121480500F08EFB002160
:1008B0004FF4001000F089FB08E00121880500F0EA
:1008C00084FB00214FF4800000F07FFB10BD2DE978
:1008D000F04385B004460D460026B1460427DFF8F4
:1008E000A483A6884FF6C0700640684600F0D9FA87
:1008F000DDF80880E448B8FBF0F01FFA80F946EA1A
:100900000906A68020884FF6FE7108402080002648
:10091000DE49286888420CD828684000B8FBF0F00F
:1009200087B2042F00DA04273E4309F10100208436
:1009300027E0E8884BF6FF71884206D1286800EB73
:100940004000B8FBF0F087B209E0286800EBC00176
:1009500001EB0010B8FBF0F087B247F48047C7F313
:100960000B0008B947F0010747F4004006434FF475
:10097000967009FB00F04FF47A7190FBF1F0401C87
:100980002084A683208840F00100208026884FF62E
:10099000F5300640A8886989084306432680A8895F
:1009A00029890843208105B0BDE8F08341F28831F0
:1009B0000160002181804BF6FF71C180002101811F
:1009C00041814FF480418181704721B1028842F01A
:1009D0000102028004E002884FF6FE731A40028092
:1009E000704721B1828842F40062828004E08288EC
:1009F0004FF2FF731A408280704721B1828842F41F
:100A00008052828004E082884EF6FF731A40828012
:100A1000704721B1028842F48072028004E00288AB
:100A20004FF6FF631A400280704721B1028842F4FA
:100A30000072028004E002884FF6FF531A400280E1
:100A4000704721B1028842F48062028004E002888B
:100A50004FF6FF331A40028070470A460021818911
:100A60004FF60173194002F0FE031943818170476C
:100A700021B1828942F00102828104E082894FF62D
:100A8000FE731A408281704721B1028842F0400211
:100A9000028004E002884FF6BF731A40028070475C
:100AA0001AB183880B43838002E083888B43838061
:100AB0007047018270470146088AC0B2704712B180
:100AC00041F0010102E04FF6FE73194001827047C8
:100AD00008B502460020009000920098084400905B
:100AE0000098008808BD21B1028842F400420280CB
:100AF00003E00288C2F30E0202807047B1F5006F76
:100B000004D1028842F40062028004E002884FF2BD
:100B1000FF731A4002807047B1F5005F04D102886C
:100B200042F40052028004E002884DF6FF731A403E
:100B30000280704721B1028842F48052028004E0B2
:100B400002884EF6FF731A4002807047B1F5006FBD
:100B500004D1028842F40062028004E002884FF26D
:100B6000FF731A400280704721B1028842F02002D0
:100B7000028004E002884FF6DF731A40028070475B
:100B80000146088B0012704721B1028842F0100222
:100B9000028004E002884FF6EF731A40028070472B
:100BA00021B9028842F08002028004E002884FF6F8
:100BB0007F731A4002807047B1F5804F05D0828B59
:100BC0004BF6FF731A40828303E0828B42F480422B
:100BD0008283704770B50246002400250023002060
:100BE000958A138B1B0445EA030626F07F4404EA2A
:100BF00001068E4201D1012000E0002070BD10B539
:100C000001460020002300228B8A0A8B120443EA4B
:100C1000020424F07F4010BD0CB5024600200023E2
:100C20000193009300920B0F019321F07F41019BF0
:100C30001BB1009B1433009303E0090C009B183395
:100C40000093009B1B680B400BB1012000E00020CB
:100C50000CBD002221F07F42D3438382704730B520
:100C6000024600200023948801F0E06504EA154361
:100C700021F07F41948A0C4054B14BB1012008E02F
:100C80000054004000127A0040420F00A08601008C
:100C9000002030BD002221F07F42D3438382704781
:100CA000DF48006840F00100DD4908600846406800
:100CB000DC490840DA49486008460068DA490840DB
:100CC000D74908600846006820F48020086008467C
:100CD000406820F4FE0048604FF41F0088607047B1
:100CE000CF49096821F48031CD4A11601146096865
:100CF00021F480211160B0F5803F03D0B0F5802F42
:100D00000ED106E0C649096841F48031C44A116039
:100D100007E0C349096841F4A021C14A116000E01D
:100D200000BF00BF704710B501460022002300201D
:100D30004A11012A02D1BA4C236806E0022A02D1E4
:100D4000B74C236A01E0B64C636A01F01F0201242C
:100D500094401C400CB1012000E0002010BD38B5CB
:100D6000002000900024002500BF3120FFF7DBFFAA
:100D700005460098401C00900098B0F5A06F01D087
:100D8000002DF2D03120FFF7CEFF08B1012400E0A2
:100D90000024204638BD01460020A14A106820F0FA
:100DA000F80040EAC10010607047A0490860704731
:100DB000024600209A4B586820F47C1042EA010356
:100DC0001843974B5860704798490866704701462A
:100DD0000020934A506820F0030008435060704799
:100DE0008F48406800F00C007047014600208C4A94
:100DF000506820F0F0000843506070470146002022
:100E0000874A506820F4E06008435060704701460C
:100E10000020834A506820F4605040EAC1005060CE
:100E2000704729B17E4A527A02437D4B5A7204E0E0
:100E30007B4A527A82437A4B5A7270477B49D83147
:100E40000860704701460020754A506820F4404011
:100E50000843506070470021714A20321170704A77
:100E600082F82010012802D004280AD104E00121D0
:100E70006B4A2032117005E00521694A2032117059
:100E800000E000BF00BF70476949086070476449CF
:100E9000096A0143624A1162704765494439086032
:100EA000704730B500210022002400235C4D6D689E
:100EB00005F00C0121B1042905D0082923D105E052
:100EC0005C4D056022E05B4D05601FE0544D6D6890
:100ED00005F47012524D6D6805F48034022505EB5F
:100EE00092421CB9544D554305600BE04C4D6D6862
:100EF00005F400351DB1504D5543056002E04D4DE0
:100F00005543056002E04B4D056000BF00BF444DF6
:100F10006D6805F0F0010909484D6B5C0568DD401E
:100F200045603F4D6D6805F4E061090A434D6B5C17
:100F30004568DD4085603A4D6D6805F46051C90A29
:100F40003E4D6B5C4568DD40C560354D6D6805F410
:100F50004041890B3A4D6B5CC568B5FBF3F5056103
:100F600030BD29B12E4A526902432D4B5A6104E02B
:100F70002B4A526982432A4B5A61704729B1284A49
:100F800092690243264B9A6104E0254A92698243A2
:100F9000234B9A61704729B1214AD2690243204B01
:100FA000DA6104E01E4AD26982431D4BDA61704760
:100FB00029B11B4AD2680243194BDA6004E0184A8F
:100FC000D2688243164BDA60704729B1144A12691D
:100FD0000243134B1A6104E0114A12698243104B19
:100FE0001A61704712494039086070470F49C86458
:100FF00070470B49C87170470948406A40F08070DB
:1010000007494862704701460020054A92680A4035
:101010000AB1012000E00020704701498872704742
:10102000001002400000FFF8FFFFF6FE0000424201
:101030008004424200127A0000093D0014000020A2
:101040002400002010B50446FB48844209D1012148
:101050008803FFF7ADFF00214FF48040FFF7A8FFA2
:1010600032E0F648844209D101214804FFF7ADFF80
:1010700000214FF40030FFF7A8FF25E0F04884423C
:1010800009D101218804FFF7A0FF00214FF480203F
:10109000FFF79BFF18E0EB48844209D10121C80407
:1010A000FFF793FF00214FF40020FFF78EFF0BE0C6
:1010B000E548844208D101210805FFF786FF002199
:1010C0004FF48010FFF781FF10BD2DE9F04786B087
:1010D00005460E460024A24600BFA1460027B0895F
:1010E00000B100BF2F462C8A4CF6FF700440F088F8
:1010F00004432C82AC894EF6F3100440B088318949
:101100000843718908430443AC81AC8A4FF6FF4021
:101110000440B0890443AC8201A8FFF7C2FEC64870
:10112000874202D1DDF810A001E0DDF80CA0A8890B
:1011300000F4004040B10AEBCA0000EB0A1031682D
:101140004900B0FBF1F807E00AEBCA0000EB0A1017
:1011500031688900B0FBF1F86420B8FBF0F00401BD
:101160002009642101FB1089A88900F4004040B1E6
:10117000322000EBC900B0FBF1F000F0070004439F
:1011800008E0322000EB09106421B0FBF1F000F020
:101190000F0004432C8106B0BDE8F0874FF41651D0
:1011A000016000218180C18001810C2141810021E9
:1011B0008181704710B502460020108A4FF2FF036C
:1011C00018400B884C8823438C882343CC882343C6
:1011D0001843108210BD0021018041808180C180B0
:1011E000704721B1828942F40052828104E08289F1
:1011F0004DF6FF731A4082817047F0B50346002414
:1012000000260025002040F66A17B94200D100BF31
:101210001846C1F3421401F01F06012707FA06F52C
:10122000012C01D10C3004E0022C01D1103000E07F
:1012300014301AB107682F43076002E00768AF4314
:101240000760F0BD1AB1838A0B43838202E0838A70
:101250008B4383827047028A4FF6F0731A400282F2
:10126000028A0A430282704782894FF2FF731A4052
:10127000828182890A438281704721B1828942F04A
:101280000202828104E082894FF6FD731A40828156
:101290007047028A4FF6DF731A400282028A0A43BD
:1012A0000282704721B1028A42F48042028204E045
:1012B000028A4BF6FF731A4002827047C1F308029C
:1012C0008280704701468888C0F308007047818992
:1012D00041F0010181817047028BD2B20283028BFF
:1012E00042EA012202837047028B02F47F420283AA
:1012F000028B0A430283704721B1828A42F02002A6
:10130000828204E0828A4FF6DF731A40828270473D
:1013100021B1828A42F01002828204E0828A4FF672
:10132000EF731A408282704721B1828A42F008022C
:10133000828204E0828A4FF6F7731A4082827047F5
:1013400021B1828942F40042828103E08289C2F3A2
:101350000E028281704721B1828A42F40062828249
:1013600004E0828A4FF2FF731A4082827047828AB9
:101370004FF6FB731A408282828A0A438282704748
:1013800021B1828A42F00202828204E0828A4FF610
:10139000FD731A408282704702460020B1F5007F3B
:1013A00000D100BF13880B400BB1012000E00020EA
:1013B000704701F40072B2F5007F00D100BFCA434C
:1013C0000280704770B502460024002300250020EB
:1013D00040F66A16B14200D100BFC1F3421501F0D8
:1013E0001F03012606FA03F3012D02D1968933402B
:1013F00006E0022D02D1168A334001E0968A33407E
:101400000C12012606FA04F41688344013B10CB10C
:10141000012000E0002070BD10B50022002340F63E
:101420006A14A14200D100BF0A1201249440A3B261
:10143000DC43048010BD000000380140004400403F
:1014400000480040004C0040005000402DE9FC41A5
:1014500005462F463C463FE011E0022354A20321FB
:10146000002000F04AFA022354A20521002000F0D7
:1014700044FA4FF47A7000F053FB00F023FA51481D
:1014800000680128E9D03C20B4FBF0F842464EA1A8
:1014900001A800F0E1FC022301AA0021084600F0A7
:1014A0002CFA02234AA20021102000F026FA3C2048
:1014B000B4FBF0F100FB1148424643A1684600F03E
:1014C000CBFC02236A460021182000F016FA40F2F5
:1014D000E33000F025FB641E002CBDD1022610E095
:1014E0004FF480713B48FFF738F9642000F018FB97
:1014F0004FF480713748FFF732F9642000F010FB99
:10150000761E002EECDCBDE8FC8100F0F4FB00F060
:101510002FFB00F0BBFB00F05BFB20202E49086096
:10152000012008600220091D08602CA000F084FC46
:101530002DA000F081FC00F0C5FA00F0B1F800F039
:1015400037F934A000F078FC00F0BCF920202249E3
:1015500008600120091D08600220091F086025E0BD
:1015600001211C4800F0FBFB01281FD140F6B830D8
:10157000FFF76CFF00F0A6F902232CA20021084619
:1015800000F0BBF9022000F0D5FA00F09BF94FF40F
:101590001670FFF75BFF022327A20021084600F028
:1015A000ACF9022000F0C6FA00F08CF9D8E7000090
:1015B000636F756E74646F776E00000073746F7084
:1015C00000000000AC040020252E32640000000062
:1015D0003A00000000080140100C01400D0A20BB39
:1015E000B6D3AD200D0A00000D0A20D5E2CAC7D23D
:1015F000BBB8F653544D3332A3AB4F4C4544CFD414
:10160000CABEC6C1D1A7CFB0D6D3B3CCD0F2200DBD
:101610000A0000000D0A204F4C4544B3F5CABCBB7C
:10162000AFB3C9B9A6200D0A0000000035306D69BE
:101630006E20444F4E45000031306D696E20444F9E
:101640004E450000704700BFFEE700BFFEE700BF49
:10165000FEE700BFFEE770477047704710B500F027
:1016600075FA10BD10B54FF40050FEF74FFF70B182
:101670000748006808B9012000E00020044908601C
:1016800004A000F0D9FB4FF40050FEF750FF10BD4E
:10169000AC040020BCC6CAB1D4DDCDA3000000005C
:1016A00000B585B001214805FFF775FC0121082030
:1016B000FFF764FC4020ADF8000003208DF8020025
:1016C0001C208DF803006946F648FEF799FF80203C
:1016D000ADF800006946F348FEF792FF0020ADF830
:1016E00008004BF6FF70ADF80A007820ADF80C004A
:1016F0004FF48060ADF80E000001ADF81000EA482C
:10170000019001A9E948FFF7E2F80121E748FFF756
:101710005CF905B000BD70B504460D4600BF4FF43E
:101720000031E248FFF778FA0028F8D10121DF48BC
:10173000FFF76FF900BFDE49DC48FFF74BFA0028DE
:10174000F9D000227821D948FFF7B9F900BFD9496B
:10175000D648FFF73FFA0028F9D02146D348FFF7D3
:10176000A8F900BFD349891CD048FFF733FA0028F5
:10177000F8D02946CD48FFF79CF900BFCD49891C18
:10178000CA48FFF727FA0028F8D00121C748FFF719
:101790004CF970BD10B5044621460020FFF7BBFF91
:1017A00010BD10B5044621464020FFF7B4FF10BD20
:1017B00010B5012000F0BEF9AE20FFF7EBFF2020AE
:1017C000FFF7E8FF1020FFF7E5FFB020FFF7E2FF8B
:1017D000C820FFF7DFFF0020FFF7DCFF1020FFF736
:1017E000D9FF4020FFF7D6FF8120FFF7D3FFFF206E
:1017F000FFF7D0FFA120FFF7CDFFA620FFF7CAFF1C
:10180000A820FFF7C7FF3F20FFF7C4FFA420FFF782
:10181000C1FFD320FFF7BEFF0020FFF7BBFFD5209D
:10182000FFF7B8FFF020FFF7B5FFD920FFF7B2FFB1
:101830002220FFF7AFFFDA20FFF7ACFF1220FFF7FF
:10184000A9FFDB20FFF7A6FF2020FFF7A3FF8D20D5
:10185000FFF7A0FF1420FFF79DFFAF20FFF79AFFCF
:1018600010BD70B504460D4605F1B001C8B2FFF7D2
:1018700091FF102141EA1410FFF78CFF04F00F01D3
:1018800041F00100FFF786FF70BD70B506460024E9
:1018900015E004F1B001C8B2FFF77CFF0020FFF7AC
:1018A00079FF1020FFF776FF002504E03046FFF7B0
:1018B00078FF681CC5B2802DF8DB601CC4B2082C10
:1018C000E7DB70BD10B50020FFF7DFFF10BD10B5DE
:1018D0008D20FFF75FFF1420FFF75CFFAF20FFF7BD
:1018E00059FF10BD10B58D20FFF754FF1020FFF7F2
:1018F00051FFAE20FFF74EFF10BD2DE9F047064621
:10190000894617469A464FF0000800240025BAF190
:10191000010F03D0BAF1020F5ED125E020E0785D1F
:10192000203800F0FF087E2E04DD002609F10100BA
:1019300000F0FF0949463046FFF793FF002409E015
:1019400008EB48015C4A02EB4101085DFFF729FF03
:10195000601CC4B2062CF3DBB01DC6B2681CC5B255
:10196000785D0028DBD137E032E0785D203800F088
:10197000FF08782E04DD002609F1010000F0FF09C0
:1019800049463046FFF76DFF002407E004EB0811DD
:101990004A4A505CFFF705FF601CC4B2082CF5DB17
:1019A00009F10100C1B23046FFF75BFF002408E0F7
:1019B00004EB08110831414A505CFFF7F2FE601C4D
:1019C000C4B2082CF4DB06F10800C6B2681CC5B22C
:1019D000785D0028C9D100BF00BFBDE8F0872DE9C0
:1019E000F04180460E46174600247D0131464046B0
:1019F000FFF737FF00BF06E03149485DFFF7D1FE32
:101A00006D1C601CC4B2102CF6DB701CC1B24046C9
:101A1000FFF727FF002406E02949485DFFF7C1FED4
:101A20006D1C601CC4B2102CF6DBBDE8F0812DE902
:101A3000F05F06460F4690461C46DDF828A04FF0A2
:101A4000000BE11704EB5171C910A4EBC10131B9CE
:101A50002046E11704EB5171C1F3C70506E02046AB
:101A6000E11704EB5171C910491CCDB23D4614E099
:101A700029463046FFF7F5FEB1460AE059460BF11C
:101A8000010B1AF80100FFF78CFE09F1010000F0CC
:101A9000FF09C145F2DB681CC5B2A542E8DBBDE821
:101AA000F09F0000000C0140801A06000054004026
:101AB0000100030082000700FE1F00082622000824
:101AC0002800002030B5264800684FF47A72B0FB39
:101AD000F2F1B1F1807F01D301201DE021F07F40C0
:101AE000401E4FF0E022506150170F22002807DA05
:101AF00013071D0E1B4B00F00F04241F1D5503E0A0
:101B000013071C0E184B1C5400BF00204FF0E0229E
:101B1000906107201061002008B100BFFEE730BDD2
:101B200001B512490098086000BF104800680028FD
:101B3000FBD108BD10B50246002404E04FF47A70D2
:101B4000FFF7EEFF521E9442F8D310BD074800681D
:101B500020B106480068401E044908607047000034
:101B60000000002018ED00E000E400E0A8040020E0
:101B700008B501210820FFF701FA2020ADF8000088
:101B800010208DF8030003208DF8020069460F48ED
:101B9000FEF736FD0120ADF8000069460B48FEF760
:101BA0002FFD0220ADF8000069460848FEF728FD29
:101BB00020210648FEF7D1FD01210448FEF7CDFDA6
:101BC00002210248FEF7C9FD08BD0000000C0140DB
:101BD00000B585B001210420FFF7D0F90121880369
:101BE000FFF7CCF94FF40070ADF8100018208DF815
:101BF000130003208DF8120004A92248FEF700FD0F
:101C00004FF48060ADF8100004208DF8130004A993
:101C10001C48FEF7F5FC4FF4E13000900020ADF8D1
:101C20000400ADF80600ADF80800ADF80C000C207B
:101C3000ADF80A0069461448FFF747FA0121124837
:101C4000FFF7CFFA05B000BD70B504460D46E1B20E
:101C50000D48FFF733FB00BF80210B48FFF79CFBCB
:101C60000028F9D0204670BD10B5044600BF2021E1
:101C70000548FFF791FB0028F9D00348FFF722FB46
:101C800010BD0000000801400038014008B50121E6
:101C90000420FFF773F910208DF8030003208DF85E
:101CA00002004FF48070ADF8000069460448FEF76A
:101CB000A7FC4FF480710248FEF751FD08BD0000FB
:101CC0000008014008B54FF4C060FEF73DFB062058
:101CD0008DF8000001208DF801008DF802008DF8CC
:101CE00003006846FEF735FB28208DF800006846A3
:101CF000FEF72FFB08BD0EB501210520FFF73EF9C9
:101D000001211120FFF73AF9FFF7DCFF0120ADF8C0
:101D1000080004208DF80B0002A91B48FEF770FC98
:101D20004FF40050ADF8080004208DF80B0002A914
:101D30001648FEF765FC0D210220FEF777FD4FF4F3
:101D40000050009000208DF804000C208DF8050054
:101D500001208DF806006846FEF772FB0EBD70B5D7
:101D600004460D4629462046FEF7DDFC012808D131
:101D700000BF29462046FEF7D6FC0128F9D00120F5
:101D800070BD0020FCE70000000801400010014089
:101D900030B50B46014600202022012409E021FA3B
:101DA00002F59D4205D303FA02F5491B04FA02F538
:101DB0002844151EA2F10102F1DC30BD064C074D8E
:101DC00006E0E06840F0010394E80700984710340B
:101DD000AC42F6D3FEF7B0F91828000838280008FE
:101DE00070B58C1810F8015B15F0070301D110F8DD
:101DF000013B2A1106D110F8012B03E010F8016B0A
:101E000001F8016B5B1EF9D12B0705D40023521E8C
:101E10000DD401F8013BFAE710F8013BCB1A921CF4
:101E200003E013F8015B01F8015B521EF9D5A142F2
:101E3000D8D3002070BD00000FB4054B10B503A926
:101E4000044A029800F02CF810BC5DF814FB000066
:101E5000491C0008B00400200FB4084B10B504A9B9
:101E600002AA039800F01CF8044602A9002000F022
:101E7000C1F8204610BC5DF814FB0000F51F0008F7
:101E800002E008C8121F08C1002AFAD17047704743
:101E9000002001E001C1121F002AFBD170470000A1
:101EA0002DE9FF4F89B09B460446002506E0252812
:101EB0000BD05A460B999047641C6D1C2078002863
:101EC000F5D10DB02846BDE8F08F0027B8460122B5
:101ED000474900E0074314F8013F203B02FA03F0B2
:101EE0000842F7D120782E2819D114F8010F47F0B5
:101EF00004072A280ED06FF02F022078A0F13001BD
:101F000009290CD808EB880102EB410100EB01081C
:101F1000641CF2E70A98641C50F8048B0A9020783D
:101F20000028CED0642808D0692806D075281ED095
:101F30005A460B9990476D1C58E00A994FF00A09D0
:101F400001C90A91002802DA40422D2102E0390538
:101F500004D52B218DF82010012103E0F90704D0CE
:101F60002021F7E78A4608AE0DE00021FAE70A993A
:101F70004FF00A0901C90A91F7E74946FFF708FF40
:101F8000303106F8011D0028F7D1ADEB060000F155
:101F90002009780701D44FF00108C84502DDA8EBFD
:101FA000090000E000208046002706E008A85A4605
:101FB000C05D0B9990476D1C7F1C5745F6DB04E014
:101FC00030205A460B9990476D1CB8F10001A8F1DA
:101FD0000108F5DC05E016F8010B5A460B9990470D
:101FE0006D1CB9F10001A9F10109F4DC641C65E77D
:101FF000092801000A68531C0B601070704700002C
:10200000000000000000002F000000000700070093
:1020100000147F147F1400242A7F2A1200626408AF
:10202000132300364955225000000503000000002C
:102030001C224100000041221C000014083E08142C
:102040000008083E0808000000A06000000808081A
:102050000808000060600000002010080402003E34
:102060005149453E0000427F4000004261514946CF
:10207000002141454B31001814127F1000274545BF
:102080004539003C4A4949300001710905030036D1
:102090004949493600064949291E000036360000E4
:1020A00000005636000000081422410000141414E9
:1020B00014140000412214080002015109060032E4
:1020C0004959513E007C1211127C007F4949493622
:1020D000003E41414122007F4141221C007F49498D
:1020E0004941007F09090901003E4149497A007FC1
:1020F0000808087F0000417F4100002040413F0167
:10210000007F08142241007F40404040007F020CC5
:10211000027F007F0408107F003E4141413E007F66
:1021200009090906003E4151215E007F091929462F
:102130000046494949310001017F0101003F40400B
:10214000403F001F2040201F003F4038403F0063B9
:1021500014081463000708700807006151494543DB
:1021600000007F41410000552A552A550000414199
:102170007F00000402010204004040404040000093
:1021800001020400002054545478007F484444382D
:1021900000384444442000384444487F00385454B4
:1021A000541800087E0901020018A4A4A47C007F32
:1021B000080404780000447D4000004080847D00D5
:1021C000007F102844000000417F4000007C04187C
:1021D0000478007C0804047800384444443800FC47
:1021E000242424180018242418FC007C0804040863
:1021F00000485454542000043F444020003C4040D8
:10220000207C001C2040201C003C4030403C00440E
:1022100028102844001CA0A0A07C004464544C4416
:102220001414141414140000000000000000000036
:10223000000000000000000000F8000000000000A6
:1022400000333000000000100C06100C06000000E7
:1022500000000000000040C07840C0784000043F0B
:1022600004043F040400007088FC083000000018DB
:1022700020FF211E0000F008F000E01800000021FF
:102280001C031E211E0000F00888700000001E21A3
:1022900023241927211010160E0000000000000052
:1022A000000000000000000000E018040200000030
:1022B00000071820400000020418E0000000004061
:1022C000201807000000404080F0804040000202DB
:1022D000010F01020200000000F0000000000101F7
:1022E000011F01010100000000000000000080B09B
:1022F000700000000000000000000000000000016D
:102300000101010101010000000000000000003097
:102310003000000000000000000080601804006031
:1023200018060100000000E010080810E000000F8F
:10233000102020100F00001010F8000000000020F6
:10234000203F20200000007008080888700000303E
:1023500028242221300000300888884830000018E6
:10236000202020110E000000C02010F800000007FF
:102370000424243F240000F8088888080800001975
:10238000212020110E0000E0108888180000000FA6
:10239000112020110E0000380808C838080000007D
:1023A000003F000000000070880808887000001CD2
:1023B000222121221C0000E010080810E00000008B
:1023C000312222110F00000000C0C00000000000F8
:1023D000003030000000000000800000000000001D
:1023E0008060000000000000804020100800000114
:1023F00002040810200040404040404040000404D7
:1024000004040404040000081020408000000020A0
:10241000100804020100007048080808F0000000DD
:10242000003036010000C030C828E810E00007186E
:10243000272423140B000000C038E0000000203CDB
:1024400023020227382008F8888888700000203F7F
:10245000202020110E00C030080808083800071896
:1024600020202010080008F808080810E000203F8D
:10247000202020100F0008F88888E8081000203F6E
:1024800020202320180008F88888E8081000203F42
:10249000200003000000C0300808083800000718BA
:1024A0002020221E020008F808000008F808203F3B
:1024B000210101213F20000808F808080000002041
:1024C000203F2020000000000808F8080800C08015
:1024D00080807F00000008F888C028180800203F8E
:1024E00020012638200008F8080000000000203FE6
:1024F00020202020300008F8F800F8F80800203FDD
:10250000003F003F200008F830C00008F808203FD6
:10251000200007183F00E01008080810E0000F1026
:10252000202020100F0008F808080808F000203FBD
:10253000210101010000E01008080810E0000F1858
:10254000242438504F0008F8888888887000203F7D
:102550002000030C3020007088080808380000387C
:10256000202121221C00180808F808081800000083
:10257000203F2000000008F808000008F808001FAD
:10258000202020201F000878880000C8380800009C
:1025900007380E010000F80800F80008F800033CB6
:1025A0000700073C0300081868808068180820307E
:1025B0002C03032C30200838C800C838080000005D
:1025C000203F2000000010080808C8380800203804
:1025D000262120201800000000FE02020200000058
:1025E000007F40404000000C30C0000000000000B0
:1025F00000010638C00000020202FE000000004098
:1026000040407F00000000000402020204000000BD
:1026100000000000000000000000000000008080BA
:1026200080808080808000020204000000000000A2
:102630000000000000000000808080800000001981
:10264000242222223F2008F8008080000000003F62
:10265000112020110E000000008080800000000E7C
:10266000112020201100000000808088F800000E5A
:10267000112020103F200000808080800000001F7B
:10268000222222221300008080F0888888180020EF
:10269000203F202000000000808080808000006BB0
:1026A00094949493600008F8008080800000203F9C
:1026B000210000203F2000809898000000000020AA
:1026C000203F20200000000000809898000000C0FB
:1026D0008080807F000008F8000080808000203F1C
:1026E00024022D302000000808F80000000000201F
:1026F000203F202000008080808080808000203F5C
:1027000020003F20003F8080008080800000203F2C
:10271000210000203F200000808080800000001FFA
:10272000202020201F00808000808000000080FF8B
:10273000A12020110E000000008080808000000E8B
:10274000112020A0FF8080808000808080002020D9
:102750003F21200001000000808080808000003345
:10276000242424241900008080E0808000000000E0
:10277000001F202000008080000000808000001FDB
:10278000202020103F208080800000808080000179
:102790000E300806010080800080008080800F30AD
:1027A0000C030C300F00008080008080800000202F
:1027B000312E0E312000808080000080808080815A
:1027C0008E701806010000808080808080000021CB
:1027D000302C2221300000000000807C020200002A
:1027E0000000003F404000000000FF00000000002B
:1027F0000000FF0000000002027C8000000000409A
:10280000403F000000000006010102020404000035
:102810000000000000000000382800080000002030
:10282000B4040000E01D0008D8290008B40400200A
:1028300004040000901E00081184A24A04680901E3
:10284000020304060708090C691015020406082C87
:10285000FE9292031117424AD26A46C0100940C440
:1028600044443F2424241440807F420133C0382252
:10287000FF34402018100880814020100C031008FD
:10288000030C1020408080172424A4FEA3223B22A6
:10289000CC242115080601FF2B01040115FF0202BB
:1028A00002180C101010FF109008888888FF04127E
:1028B0000820100444827F01808040432C10284669
:1028C0008180100A03050911FF118905C312E01266
:1028D000F072F8073D4428FF11AA44700B830138B9
:1028E000448292927401831E7C44C7017D01990544
:1028F00039B3219A0102818A010B01366941994954
:10290000FA0101A12A4001212A6D01212A600179E1
:102910001501642ADB010915072ADA01212AD801E9
:10292000212AC0010915072A800101352A0601095B
:1029300018071CE66620076A86157A861C2A860117
:10294000180A80808686068686C0C00C0E1C060685
:10295000D030764D2907013113601C12FE1301029D
:102960001009C41820029E63B20E1DFF8181FFF280
:102970004440300F12FF180923EAAABFAAEA033F16
:102980000B012DBC808080080115240E0C082A0143
:10299000013149041D81808081021901B917061196
:1029A0000101090C0E0A14C0012178081E214040C3
:1029B00050215E08012A4DFFFFC1C10409232DC823
:1029C0001580FCF3EFF3FC80FF80EEEEEEF5FBFFED
:0829D0009CBEB6B6883A000077
:0400000508000131BD
:00000001FF
